:020000040800F2
:1000000000500020ED0B00087D0B00087F0B00085E
:10001000810B0008830B0008850B0008000000001E
:10002000000000000000000000000000870B000836
:10003000890B0008000000008B0B00088D0B0008E6
:10004000350C0008350C0008350C0008350C00088C
:10005000350C0008350C0008350C0008350C00087C
:10006000350C0008350C0008350C0008350C00086C
:10007000350C0008350C0008350C0008350C00085C
:10008000350C0008350C0008350C0008350C00084C
:10009000350C0008350C0008350C0008350C00083C
:1000A000350C0008350C0008350C0008350C00082C
:1000B000350C0008350C0008350C0008350C00081C
:1000C000350C0008350C0008350C0008350C00080C
:1000D000350C0008910B00089D0B0008350C00083A
:1000E000350C0008350C0008350C00080000000035
:1000F0000000000000000000000000000000000000
:0C01000000000000000000005FF808F1A3
:10010C0010B5054C237833B9044B13B10448AFF345
:10011C0000800123237010BD6C0000200000000043
:10012C00D81E000808B5034B1BB103490348AFF3B5
:10013C00008008BD0000000070000020D81E0008E0
:10014C0010F8012B11F8013B012A28BF9A42F7D075
:10015C00D01A7047034613F8012B002AFBD1181A4A
:10016C00013870472DE9F04194B004460D4600F07B
:10017C00D3F95549554800F0B1FA5549554800F0A6
:10018C00ADFA0526DFF84881534F4146384600F05A
:10019C00A5FA4FF47A7000F091FD013EF5D14A4971
:1001AC004E4800F09BFA484F4D4E3946304600F011
:1001BC00EFFA0028F9D046494A4800F08FFA424934
:1001CC00494800F08BFA404F484E3946304600F013
:1001DC00DFFA0028F9D03E49454800F07FFA3C4947
:1001EC00444800F07BFA2B4622464349684601F00E
:1001FC00A3F96846344900F071FA334E3F4D31464D
:10020C00284600F0C5FA0028F9D022463C49684639
:10021C0001F092F968462E4900F060FA2A493948F3
:10022C0000F05CFA284D384C2946204600F0B0FA14
:10023C000028F9D0244E354D354C324629462046FF
:10024C0000F058FA0028F8D01F4D324C29462046B1
:10025C0000F09EFA0028F9D02C4C1B4D2046FFF7DD
:10026C0079FF00232044224600F8013C2A496846C5
:10027C0001F062F96846164900F030FA1249274835
:10028C0000F02CFA264C2946204600F081FA002872
:10029C00F9D00F49234800F021FA0B49224800F00D
:1002AC001DFA094D1B4C2946204600F071FA002816
:1002BC00F9D007491D4800F011FA05491C4800F017
:1002CC000DFA14B0BDE8F08114020020F01E0008F5
:1002DC00CC010020F91E0008021F0008041F0008B2
:1002EC00091F0008151F0008211F00082F1F0008F8
:1002FC00441F0008541F0008761F00088B1F0008BD
:10030C009F1F0008B31F0008BE1F000888000020B4
:10031C00CA1F00083F1F0008CC1F0008DA1F000886
:10032C00E81F0008FD1F00080D2000082120000810
:10033C003420000870B594B00D460446FFF70AFF50
:10034C002A4603461749684601F0F6F868461649EE
:10035C0000F0C4F9144E154D3146284600F018FA39
:10036C000028F9D02046104900F0B8F90E4D104C79
:10037C002946204600F00CFA0028F9D00D496846B1
:10038C0001F03EF96846084900F0A8F9064D0A4C00
:10039C002946204600F0FCF90028F9D0012014B0C1
:1003AC0070BD00BF53200008140200204B21000830
:1003BC00662000086E2000083F1F0008F0B50546B7
:1003CC000C460021ADF2044D4FF47F7201A8009150
:1003DC0001F0D2F828461149FFF7B2FE104B114E2E
:1003EC001F6898B93946684601F0A6F80E4B196893
:1003FC00684601F0C9F83168684601F0C5F8214635
:10040C006846FFF797FF0DF2044DF0BD074D3946D6
:10041C00684601F091F82968EAE700BF7E200008E1
:10042C00000000200C000020080000200400002028
:10043C00002130B593B03C2203A8029101F09CF846
:10044C00254D264C2B46012120460DF1070200F0CC
:10045C00EFF90028F6D09DF807301F4D303B204CAB
:10046C008DF807302A46204602A900F043F90028EF
:10047C00F8D01C4802A900F090F8012802460BD1D4
:10048C004FF40051184800F069FD9DF8071015480D
:10049C00FFF794FF13B030BD144802A900F07DF8AB
:1004AC00012809D14FF400510F48002200F056FDED
:1004BC009DF807100D48EBE70D4802A900F06DF808
:1004CC000128E7D020210B48002200F047FD9DF8C1
:1004DC0007100948DCE700BF140200208D2000083B
:1004EC00932000087E2000080010014085200008A1
:1004FC009D20000800080140AA200008054B1B683D
:10050C00196C5A6C91421ABF5A6C985C4FF0FF30C0
:10051C00704700BF9C000020104B114A1A60114B11
:10052C00114A1A60114B124A1A60124B124A1A6085
:10053C00124B1A68536943F001035361104B1B684B
:10054C00596941F001015961D16841F02001D16034
:10055C00DA6842F02002DA60704700BF9C0000208D
:10056C00AC000020A40000203C010020A0000020D2
:10057C00F4000020A80000208401002014020020B8
:10058C00CC0100200B6C4A6C013303F03F039A4200
:10059C001EBF0A6C88540B64704770B505460C4638
:1005AC00FFF7D8FD002329781A46A65C01338E424A
:1005BC00FAD1002314440133E95C14F8012F914261
:1005CC00F9D098420CBF01204FF0FF3070BD0000F5
:1005DC00094B984201D1FFF791BF084B984208D1C3
:1005EC00074B1B68196C5A6C914202D05A6C985C80
:1005FC0070474FF0FF30704714020020CC010020F0
:10060C00A00000200C4B98420DD10C4B1B68196CB0
:10061C005A6C91420CD05A6C985C5A6C013202F0B4
:10062C003F025A647047064B984201D1054BEDE7E7
:10063C004FF0FF30704700BF140200209C000020D8
:10064C00CC010020A0000020002810B513DB114CB9
:10065C00A14211D1104B1A68136C013303F03F0304
:10066C00516C9942FCD0116C505413642268D368BD
:10067C0043F08003D36010BD084CA142FBD1084B62
:10068C001A68136C013303F03F03516C9942FCD090
:10069C00E9E700BF14020020A4000020CC010020D8
:1006AC00A8000020094B984207D1094B1B68186C15
:1006BC005B6CC01A00F03F007047064B984201D1AA
:1006CC00054BF3E74FF0FF30704700BF14020020DA
:1006DC009C000020CC010020A000002038B50D4665
:1006EC00441E14F8010F00B938BD2946FFF7ACFFC2
:1006FC00F7E700002DE9F74F074688461446FFF749
:10070C0029FD0025DFF8849001902046FFF7CAFFF1
:10071C000028FAD02046FFF75BFF3B78984212D1B5
:10072C00AA46002608EB050B2046FFF751FFBA5DE1
:10073C000AEB060590421AD0019B9E42E5D101209E
:10074C0003B0BDE8F08FD9F800305A6C9B5C08F808
:10075C000530D9F800200135536C013303F03F0309
:10076C0053642046FFF79EFF0028FAD0D2E72046BC
:10077C00FFF748FF019B0136B3420BF8010BDED0AB
:10078C002046FFF78FFF0028FAD0CDE79C00002011
:10079C002DE9F84306460C46FFF7DCFC0746DFF86C
:1007AC008080DFF880902046FFF77CFF0028FAD08D
:1007BC0044450ED1FFF7A2FE3378834201D10025C8
:1007CC0023E0D9F80020536C013303F03F0353644A
:1007DC00F0E7154B9C42F2D1144D2046FFF7F8FE82
:1007EC0033789842EBD02A68536C013303F03F0303
:1007FC005364F2E720460135FFF704FFAF420CD0FB
:10080C002046FFF74FFF0028FAD02046FFF7E0FE06
:10081C00735D9842EED0BD42C5D10120BDE8F8838E
:10082C00140200209C000020CC010020A00000201D
:10083C00F8B505460E4617461C4621462846FFF7D6
:10084C00A7FF0128F9D10025AE4201DC0120F8BD3B
:10085C002046FFF727FF0028FAD02046FFF7D2FEEC
:10086C0078550135F0E70000036802461868D9682E
:10087C0010F0200F11D011F0200F0ED0196858680D
:10088C00164BC0B29A4203D1154B1968FFF77ABECA
:10089C00144B9A4220D1144BF7E700061CD50906DD
:1008AC001AD50E498A4209D1104A106C516C8842F3
:1008BC0009D1DA6822F08002DA60704709498A426D
:1008CC000AD10B4AF1E7516C505C516C013101F0CB
:1008DC003F0151641A685860704700BF1402002031
:1008EC009C000020CC010020A00000203C01002036
:1008FC008401002010B590B01422002108A800F04B
:10090C003BFE1422002101A800F036FE02244FF415
:10091C0080330122CDE90D43CDE906234FF4E013DA
:10092C0006A80A920F9300F01FFB08B172B6FEE7FF
:10093C000F23CDE901344FF480630390CDE90430EB
:10094C00214601A800F0D2FC08B172B6FEE710B047
:10095C0010BD000000B589B000F08CF9FFF7CAFF9C
:10096C00102200210DEB020000F006FE2B4B4FF481
:10097C0000519A692A4842F010029A619A6900243F
:10098C0002F010020192019A9A694FF4E13642F09A
:10099C0020029A619A690C2502F020020292029AB6
:1009AC009A6942F004029A619B69002203F00403E5
:1009BC000393039B00F0D2FA4FF400520123CDE9CC
:1009CC0004230223164804A9CDE9064300F0ECF9F0
:1009DC001448154BC0E90244C0E90036C0E905547F
:1009EC000461C46100F078FD034608B172B6FEE7FD
:1009FC000E480F4AC0E90233C0E90026C0E90435AD
:100A0C00C0E9063300F068FD08B172B6FEE709498B
:100A1C000948FFF7A7FBFFF70BFDFCE700100240AE
:100A2C00001001401402002000440040CC010020C2
:100A3C0000380140AC240008B62400080E4B82B0EC
:100A4C009A6942F001029A619A6902F001020092DD
:100A5C00009ADA6942F08052DA61DB69074A03F0E6
:100A6C0080530193019B536823F0E06343F00073C0
:100A7C00536002B0704700BF0010024000000140FC
:100A8C00102210B5044688B00DEB0200002100F0D6
:100A9C0073FD2368324A934231D1324B4FF40071CB
:100AAC009A69314842F480429A619A69002402F4AE
:100ABC0080420092009A9A6942F004029A619B6902
:100ACC0003F004030193019B0223CDE904130323D8
:100ADC0004A9079300F068F94FF48063224804A935
:100AEC00CDE90434069400F05FF925202246214616
:100AFC0000F008F9252000F035F908B010BD1B4AAC
:100B0C009342FAD1174B1848DA6904A942F400321F
:100B1C00DA61DA69002402F400320292029A9A69CC
:100B2C0042F004029A619B69042203F004030393CC
:100B3C00039B0223CDE904230323079300F034F92C
:100B4C000823094804A9CDE90434069400F02CF9D3
:100B5C0026202246214600F0D5F82620CBE700BF00
:100B6C0000380140001002400008014000440040E1
:100B7C00FEE7FEE7FEE7FEE7FEE7704770477047CB
:100B8C0000F08AB80148FFF76FBE00BFCC0100200F
:100B9C000148FFF769BE00BF140200200B4A034650
:100BAC00116810B509B90A491160106809490A4C55
:100BBC000344091B8B4206D900F0F6FC0C2303609E
:100BCC004FF0FF3010BD1360FCE700BF5C0200204B
:100BDC00B00300200050002000040000704700000B
:100BEC00FFF7FCFF0B480C490C4A002302E0D458D9
:100BFC00C4500433C4188C42F9D3094A094C00235D
:100C0C0001E013600432A242FBD300F0D3FCFFF7E7
:100C1C00A1FE7047000000206C0000202025000879
:100C2C006C000020AC030020FEE7000038B50E4B32
:100C3C0005461A784FF47A73B3FBF2F30B4A10683B
:100C4C00B0FBF3F000F09CF8044658B90F2D09D80E
:100C5C00024629464FF0FF3000F054F82046044B72
:100C6C001D6038BD0120FCE714000020100000209E
:100C7C0018000020074A08B51368032043F010033E
:100C8C00136000F02DF80F20FFF7D0FFFFF7D6FE12
:100C9C00002008BD00200240034A044B11681B7859
:100CAC000B441360704700BF60020020140000204A
:100CBC00014B1868704700BF6002002038B504462D
:100CCC00FFF7F6FF0546631C1EBF044B1B78E418A8
:100CDC00FFF7EEFF431BA342FAD338BD14000020EC
:100CEC0007490302CA6803F4E06322F4E0621204C9
:100CFC00120C134343F0BF6343F40033CB607047D3
:100D0C0000ED00E0154B30B5DC68C4F30224C4F1EF
:100D1C000703251D042B28BF0423062D4FF0FF3598
:100D2C0094BF0024033C05FA03F321EA0303A54016
:100D3C0022EA0502A340002843EA0203ACBF00F1FB
:100D4C006040074A4FEA0313DBB2ABBF00F56140CA
:100D5C0000F00F0080F80033135430BD00ED00E0BC
:100D6C0014ED00E0002807DB01234109034A00F0E1
:100D7C001F00834042F82130704700BF00E100E0C3
:100D8C000138B0F1807F0BD24FF0E023F021054AFF
:100D9C00586182F823100020072298611A6170476D
:100DAC000120704700ED00E02DE9F74F00221646B8
:100DBC00644F654BDFF894C1DFF894E10D6835FAA8
:100DCC0006F402D103B0BDE8F08F4FF0010808FA29
:100DDC0006F805EA080438EA05057AD14D68032DB2
:100DEC0007D8013D022D00F28780DFE805F0959AC7
:100DFC00A000122D00F098806DD8112D00F08E807F
:100E0C00FF2C98BF82464FF00F0988BF00F1040AEF
:100E1C004FEA8605DAF8008088BF203D09FA05FB09
:100E2C0028EA0B0802FA05F548EA0505CAF800504D
:100E3C00D1F804A01AF0805F4BD0BD6926F00308EE
:100E4C0045F00105BD61BD6908F1804805F001055B
:100E5C00019508F5803806F0030B019D4FEA8B0BCA
:100E6C00D8F8085009FA0BF925EA0909394DA842B6
:100E7C0061D005F58065A8425FD005F58065A84274
:100E8C005DD005F58065A8420CBF0325042505FA45
:100E9C000BF545EA0905C8F808509D681AF4801F3F
:100EAC0014BF2543A5439D60DD681AF4001F14BFD1
:100EBC002543A543DD605D681AF4003F14BF25434C
:100ECC00A5435D601D681AF4803F14BF2543A543FC
:100EDC001D60013672E7DFF880904D450CD017D8B5
:100EEC00A9F580194D4507D009F570294D4503D05A
:100EFC00A9F580194D4583D18A68D2B1012A08BF62
:100F0C00C0F810804FF0080218BFC0F8148077E7C3
:100F1C006545F1D07545EEE7CA6871E7CA680432D9
:100F2C006EE7CA6808326BE7CA680C3268E70022C1
:100F3C0066E7042264E70025A9E70125A7E7022557
:100F4C00A5E700BF00100240000401400000311072
:100F5C000000321000080140000022100AB10161AB
:100F6C0070470904FBE700002DE9F341054638B34F
:100F7C000368DB0710D42B689F075ED42B68190716
:100F8C0000F195802B685A0700F1C180E8690028B0
:100F9C0040F02C81002029E0904C636803F00C0396
:100FAC00042B07D0636803F00C03082B0AD1636889
:100FBC00DE0307D523689C03DDD56B68002BDAD1E3
:100FCC00012013E06B68B3F5803F12D1236843F422
:100FDC0080332360FFF76CFE064623689803CAD45F
:100FEC00FFF766FE801B6428F7D9032002B0BDE82A
:100FFC00F0819BB9236823F480332360236823F4A6
:10100C0080232360FFF754FE064623689903B2D56C
:10101C00FFF74EFE801B6428F7D9E6E7B3F5A02F47
:10102C00236803D143F480232360CFE723F4803378
:10103C002360236823F48023CBE7684C636813F0A8
:10104C000C0F07D0636803F00C03082B10D16368F6
:10105C00DA030DD423689B0702D52B69012BAFD182
:10106C0023686A6923F0F80343EAC203236085E727
:10107C002A695B4B6AB101221A60FFF719FE06461A
:10108C0023689F07ECD4FFF713FE801B0228F7D9C7
:10109C00ABE71A60FFF70CFE0646236898077FF54E
:1010AC006DAFFFF705FE801B0228F6D99DE7AA69F4
:1010BC004A4E4B4BE2B10122C3F88024FFF7F8FDF6
:1010CC000446736A9B070DD54FF4FA52454B1B68C7
:1010DC00B3FBF2F3019300BF019B5A1E0192002B4C
:1010EC00F9D14FE7FFF7E4FD001B0228E9D97CE7B3
:1010FC00C3F88024FFF7DCFD0446736A9F077FF575
:10110C0041AFFFF7D5FD001B0228F6D96DE7334C34
:10111C00E369D80024D40127E36943F08053E361E9
:10112C00E36903F080530093009B2F4E3368D9057D
:10113C0018D5EB68012B26D1236A43F001032362F7
:10114C00FFF7B6FD41F288380646236A9B073FD568
:10115C00002F3FF41BAFE36923F08053E36115E7E5
:10116C000027E2E7336843F480733360FFF7A0FD98
:10117C0080463368DA05DCD4FFF79AFDA0EB080053
:10118C006428F6D931E7ABB9236A41F2883823F0E9
:10119C0001032362236A23F004032362FFF788FD13
:1011AC000646236A9807D3D5FFF782FD801B40457E
:1011BC00F7D91AE7052B236A03D143F00403236202
:1011CC00BAE723F001032362236A23F00403B6E792
:1011DC00FFF76EFD801B4045B7D906E700100240B3
:1011EC000000424210000020007000402A4C63684E
:1011FC0003F00C03082B3ED00022284B02281A6661
:10120C002CD1FFF755FD06462368990120D42B6A93
:10121C00B3F5803F05D16268A96822F400320A4315
:10122C006260696A62680B4322F4741213430122F0
:10123C0063601A4B1A66FFF73BFD054623689A015B
:10124C003FF5A8AEFFF734FD401B0228F6D9CCE6DB
:10125C00FFF72EFD801B0228D6D9C6E6FFF728FD26
:10126C00054623689B017FF595AEFFF721FD401BDA
:10127C000228F6D9B9E601283FF4B8AE63682A6AA9
:10128C0003F4803191427FF49BAE6A6A03F47013CD
:10129C0093423FF47FAE93E60010024000004242BE
:1012AC000D4A536803F00C01082912D10B48C3F303
:1012BC008341DB03405C09D55368094AC3F34043BF
:1012CC005043084AD35CB0FBF3F07047064B5843CD
:1012DC0070470348704700BF00100240D324000839
:1012EC0000127A00E324000800093D002DE9F041CA
:1012FC000D46044610B90120BDE8F081444A13683C
:10130C0003F007038B4228D321688E0730D4CA0719
:10131C0043D43F4A136803F00703AB4265D82268F5
:10132C003C4D12F0040F6CD1130706D56B68226983
:10133C0023F4605343EAC2036B60FFF7B1FF6B68A1
:10134C00354AC3F30313D35CD840344B1860344B89
:10135C001868FFF76BFC0020CEE7136823F0070337
:10136C000B431360136803F007038B42C3D1CBE725
:10137C00284B11F0040F1EBF5A6842F4E0625A6009
:10138C00080742BF5A6842F460525A605A68A06813
:10139C0022F0F00202435A60B9E762681D4E012A3E
:1013AC0033681AD113F4003FA5D0736841F2883822
:1013BC0023F0030313437360FFF77AFC074673684B
:1013CC00626803F00C03B3EB820FA2D0FFF770FC42
:1013DC00C01B4045F3D903208EE7022A02D113F03B
:1013EC00007FE1E713F0020FDEE7136823F0070339
:1013FC002B431360136803F00703AB427FF47BAFFE
:10140C008DE76B68E16823F4E0630B436B608BE75B
:10141C000020024000100240BB24000810000020F5
:10142C0018000020044B054A5B68C3F30223D35C0D
:10143C00034A1068D840704700100240CB240008C3
:10144C0010000020044B054A5B68C3F3C223D35C35
:10145C00034A1068D840704700100240CB240008A3
:10146C001000002010B504460368C1681A6922F404
:10147C0040520A431A6182680069D9680243606964
:10148C0021F4B05121F00C0102430A43DA605A698D
:10149C00A16922F440720A435A610E4A934215D153
:1014AC00FFF7D0FF19234343626820689200B3FB17
:1014BC00F2F36422B3FBF2F102FB11331B01323362
:1014CC00B3FBF2F303EB0113836010BDFFF7AAFF2C
:1014DC00E8E700BF0038014010B5044648B390F867
:1014EC00413003F0FF021BB980F84020FFF7C8FA27
:1014FC002423226884F84130D368204623F4005317
:10150C00D360FFF7AFFF236800201A6922F49042E2
:10151C001A615A6922F02A025A61DA6842F40052BE
:10152C00DA602023606484F8413084F842306063D0
:10153C0010BD0120FCE700000EB46FF0004100B5B7
:10154C009CB01DAB02900690079104910848094984
:10155C0053F8042B0591006802A9019300F0A6F939
:10156C000022029B1A701CB05DF804EB03B07047AC
:10157C00680000200802FFFF03460244934200D19A
:10158C00704703F8011BF9E7024610B514781346AF
:10159C000132002CFAD1013B11F8012B03F8012F79
:1015AC00002AF9D110BD0000014B1868704700BF2C
:1015BC006800002070B500260C4D0D4C641BA41067
:1015CC00A64209D100F082FC00260A4D0A4C641B8D
:1015DC00A410A64205D170BD55F8043B98470136BE
:1015EC00EEE755F8043B98470136F2E7182500085A
:1015FC0018250008182500081C250008704770479E
:10160C00034611F8012B03F8012B002AF9D170477E
:10161C0038B50546002940D051F8043C0C1F002B6E
:10162C00B8BFE41800F0DCF81C4A136833B96360E7
:10163C0014602846BDE8384000F0D8B8A34208D959
:10164C00206821188B4201BF19685B68091821605A
:10165C00EDE71A465B680BB1A342FAD91168501832
:10166C00A0420BD120680144501883421160E0D194
:10167C0018685B68084410605360DAE702D90C23E1
:10168C002B60D6E7206821188B4201BF19685B6874
:10169C000918216063605460CBE738BDA4030020B7
:1016AC0070B50E4E0C463168054611B900F0AAFB18
:1016BC0030602146284600F0A5FB431C0AD0C41C10
:1016CC0024F00304A04207D0211A284600F09AFB0C
:1016DC00013001D14FF0FF34204670BDA80300202B
:1016EC002DE9F843CD1C25F0030508350C2D38BF2A
:1016FC000C25002D074601DBA94205D90C23002639
:10170C003B603046BDE8F883DFF8D08000F068F825
:10171C00D8F800301C465CBB29463846FFF7C0FFA2
:10172C00431C044655D1D8F800402646002E45D11E
:10173C00002C48D023683146384604EB030900F0EE
:10174C0061FB81453FD1216838466D1A2946FFF768
:10175C00A7FF013037D023682B442360D8F8003022
:10176C00002B38D05A68A2422BD100225A600FE0CD
:10177C002268521B1FD40B2A17D96119A34225606A
:10178C0018BF5960636808BFC8F8001062514B60FD
:10179C00384604F10B0600F029F826F00706231D45
:1017AC00F21AAED09B1BA350ABE7A3426268DDD10B
:1017BC00C8F80020ECE723466468ACE7344676684A
:1017CC00B4E71346CCE70C2338463B6000F00EF828
:1017DC0097E72560DCE75B60FFDE00BFA403002019
:1017EC000148FFF70BBF00BFA00300200148FFF723
:1017FC0006BF00BFA00300202DE9F0471F468E68EE
:10180C008246BE420C4690460B682CD88A8912F44C
:10181C00906F26D06569096905EB4505A3EB0109B5
:10182C0005EBD5757B1C4B446D109D4238BF1D4696
:10183C00530527D52946FFF753FF064660B34A46A2
:10184C00216900F0FDFAA38923F4906343F080032F
:10185C00A38126614E4426603E466561A5EB0905D1
:10186C00A560BE4200D93E4632464146206800F093
:10187C00AFFA0020A3689B1BA3602368334423604A
:10188C00BDE8F0872A4600F0E9FA06460028E0D1C8
:10189C0050462169FFF7BCFE0C23CAF80030A3891F
:1018AC004FF0FF3043F04003A381E9E72DE9F04FFF
:1018BC0098468B8907461B060D4614469DB00ED5DF
:1018CC000B6963B94021FFF70BFF2860286120B931
:1018DC000C233B604FF0FF30D0E040236B610023C2
:1018EC00099320238DF8293030234FF00109CDF8CE
:1018FC000C80DFF8A0818DF82A3023469A4613F825
:10190C00012B0AB1252AF9D1BAEB040B0BD05B469B
:10191C00224629463846FFF76FFF013000F0A980B8
:10192C00099A5A4409929AF80030002B00F0A180D1
:10193C0000234FF0FF32CDE905230AF1010A04938D
:10194C0007938DF853301A935446052214F8011B53
:10195C00504800F067FA049AD8B9D00644BF202347
:10196C008DF85330110744BF2B238DF853309AF860
:10197C0000302A2B15D0544600204FF00A0C079A41
:10198C00214611F8013B303B092B4DD9B0B10792E0
:10199C0014E0A0EB080309FA03F31343A2460493E3
:1019AC00D2E7039B191D1B680391002BBBBF5B4245
:1019BC0042F0020207930793B8BF049223782E2BB0
:1019CC000CD163782A2B34D1039B02341A1D1B686B
:1019DC000392002BB8BF4FF0FF330593DFF8B8A08C
:1019EC0003225046217800F01DFA38B14022049BA6
:1019FC00A0EB0A00824013430134049314F8011B3A
:101A0C00062226488DF8281000F00CFA002838D051
:101A1C00234B1BBB039B073323F0070308330393B0
:101A2C00099B3344099368E70C4601200CFB0232F6
:101A3C00A6E700234FF00A0C194601340593204603
:101A4C0010F8012B303A092A03D9002BC6D0059186
:101A5C00C4E7044601230CFB0121F0E703AB009320
:101A6C002A4638460F4B04A9AFF30080421C0646A9
:101A7C00D6D1AB895B063FF52DAF09981DB0BDE8FB
:101A8C00F08F03AB00932A463846064B04A900F0AE
:101A9C007DF8EBE7E5240008EB240008EF240008B0
:101AAC0000000000051800082DE9F047164699467D
:101ABC008A680B6907469342B8BF1346336091F8A6
:101ACC0043200C46DDF820800AB1013333602368D3
:101ADC00990642BF336802333360256815F006055A
:101AEC0006D104F1190AE36832689B1AAB422BDC6D
:101AFC0094F84320131E226818BF0123920630D499
:101B0C004946384604F14302C047013023D02368CC
:101B1C00226903F00603042B14BF002533684FF031
:101B2C00000608BFE56804F11A0408BFED1A54F862
:101B3C00123C08BF25EAE5759342C4BF9B1AED1809
:101B4C00B5421AD1002008E00123524649463846D6
:101B5C00C047013003D14FF0FF30BDE8F0870135AD
:101B6C00C1E73020E11881F843005A1C94F8451065
:101B7C002244023382F84310C2E70123224649462D
:101B8C003846C0470130E6D00136D9E72DE9FF478A
:101B9C000F7E9146782F80460C469A460C9D01F19B
:101BAC00430207D8622F0AD8002F00F0D580582F97
:101BBC0000F0C18004F1420584F842703AE0A7F1CC
:101BCC006303152BF6D801A151F823F0311C000842
:101BDC00451C0008C11B0008C11B0008C11B0008E4
:101BEC00C11B0008451C0008C11B0008C11B0008D4
:101BFC00C11B0008C11B00084B1D0008711C00080C
:101C0C00051D0008C11B0008C11B00086D1D000844
:101C1C00C11B0008711C0008C11B0008C11B000877
:101C2C000D1D00082B681A1D1B682A6004F1420563
:101C3C0084F842300123A0E020682B68070603F1EA
:101C4C000401296001D51E6803E04606FBD5B3F9F3
:101C5C000060002E03DA2D23764284F843300A23E9
:101C6C00594812E02B682068191D2960050601D51A
:101C7C001E6802E04106FBD51E886F2F0CBF08239F
:101C8C000A235148002184F843106568002DA8BF31
:101C9C002168A560A4BF21F0040121600EB9002DBC
:101CAC004BD01546B6FBF3F103FB1167C75D05F886
:101CBC00017D3746BB420E46F4D9082B0BD1236865
:101CCC00DE0708D5236961689942DEBF302305F829
:101CDC00013C05F1FF35521B22614B462146404623
:101CEC00CDF800A003AAFFF7DFFE01304AD14FF078
:101CFC00FF3004B0BDE8F087236843F02003236075
:101D0C007827324884F84570236829681F0651F8F3
:101D1C00046B02D45F0648BFB6B2DF0748BF43F07E
:101D2C002003296048BF23601EB9236823F02003D9
:101D3C0023601023A6E72448E4E71546BDE72B688B
:101D4C002668181D6169286035061B6801D5196065
:101D5C0002E07006FBD51980002315462361BCE711
:101D6C002B6800211A1D2A601D686268284600F045
:101D7C0059F808B1401B606063682361002384F844
:101D8C004330AAE72A46494640462369D0470130EA
:101D9C00ADD023689B0713D4E068039B9842B8BF6F
:101DAC001846A6E70123324649464046D047013043
:101DBC009DD00135E36803995B1AAB42F2DCEBE78B
:101DCC00002504F11906F5E7F6240008072500089C
:101DDC00884210B501EB020402D98442234607D88D
:101DEC00431EA14208D011F8012B03F8012FF8E78C
:101DFC00014602448A4200D110BD13F8014D02F88D
:101E0C00014DF7E738B50023054D044608462B6015
:101E1C00FEF7C4FE431C02D12B6803B1236038BD0E
:101E2C009C030020034610B5C9B2024493421846E5
:101E3C0001D1002003E0047801338C42F6D110BDAF
:101E4C000A44914200F1FF3300D1704710B511F8EC
:101E5C00014B914203F8014FF9D110BD2DE9F0412E
:101E6C00804614460E4621B91146BDE8F041FFF7F5
:101E7C0037BC2AB9FFF7CCFB25462846BDE8F081D4
:101E8C0000F01BF88442074602D8B4EB500F12D86E
:101E9C0021464046FFF724FC05460028EDD0BC4205
:101EAC002246314628BF3A46FFF7CAFF3146404624
:101EBC00FFF7AEFBE1E73546DFE751F8043C181FAE
:101ECC00002BBCBF0B58C01870470000F8B500BF02
:101EDC00F8BC08BC9E467047F8B500BFF8BC08BCFF
:041EEC009E46704757
:101EF00041542B5253540D0A0052455345545449F2
:101F00004E472E0041540D0A0041540D0D0A0D0A92
:101F10004F4B0D0A0041542D2D2D2D3E4F4B0A0ADB
:101F20000041542B43574D4F44453D310D0A00416C
:101F3000542B43574D4F44453D310D0D0A0D0A4F6B
:101F40004B0D0A004357204D4F44452D2D2D2D3E5E
:101F5000310A0A00636F6E6E656374696E672E2EB8
:101F60002E20746F207468652070726F76696465C6
:101F7000642041500A0041542B43574A41503D22AE
:101F80002573222C222573220D0A00574946492029
:101F9000474F542049500D0A0D0A4F4B0D0A00437C
:101FA0006F6E6E656374656420746F2C22257322D6
:101FB0000A0A0041542B43494653520D0A00434933
:101FC0004653523A53544149502C22004950204123
:101FD0004444523A2025730A0A0041542B43495085
:101FE0004D55583D310D0A0041542B4349504D5534
:101FF000583D310D0D0A0D0A4F4B0D0A0043495053
:102000004D55582D2D2D2D3E4F4B0A0A0041542B76
:102010004349505345525645523D312C38300D0AF4
:10202000004349505345525645522D2D2D2D3E4FBC
:102030004B0A0A004E6F7720436F6E6E6563742003
:10204000746F2074686520495020414452455353B1
:102050000A0A0041542B43495053454E443D2564E0
:102060002C25640D0A0053454E44204F4B0041542B
:102070002B434950434C4F53453D350D0A002F6CBF
:1020800065646F6E002F6C65646F6666002B495047
:10209000442C0020485454502F312E31002F6661BB
:1020A0007669636F6E2E69636F002F20003C2F628C
:1020B0006F64793E3C2F68746D6C3E003C703E4C02
:1020C000454431205374617475733A204F46463C41
:1020D0002F703E3C6120636C6173733D22627574A6
:1020E000746F6E20627574746F6E2D6F6E2220682F
:1020F0007265663D222F6C65646F6E223E4F4E3CCA
:102100002F613E003C703E4C454420537461747511
:10211000733A204F4E3C2F703E3C6120636C6173DC
:10212000733D22627574746F6E20627574746F6E85
:102130002D6F66662220687265663D222F6C65648D
:102140006F6666223E4F46463C2F613E003C21446E
:102150004F43545950452068746D6C3E203C687460
:102160006D6C3E0A3C686561643E3C6D657461203F
:102170006E616D653D2276696577706F72742209B4
:1021800009636F6E74656E743D2277696474683D8F
:102190006465766963652D77696474682C20696E5F
:1021A000697469616C2D7363616C653D312E302CEF
:1021B00020757365722D7363616C61626C653D6E31
:1021C0006F223E0A09093C7469746C653E4C4544B3
:1021D00020434F4E54524F4C3C2F7469746C653EF3
:1021E0000A3C7374796C653E68746D6C207B206664
:1021F0006F6E742D66616D696C793A2048656C76F6
:1022000065746963613B200909646973706C617965
:102210003A20696E6C696E652D626C6F636B3B2052
:102220006D617267696E3A20307078206175746FE5
:102230003B20746578742D616C69676E3A20636524
:102240006E7465723B7D0A0909626F64797B6D610A
:102250007267696E2D746F703A20353070783B7DEF
:10226000206831207B636F6C6F723A2023343434E2
:102270003434343B6D617267696E3A203530707862
:10228000206175746F20333070783B7D09096833A5
:10229000207B636F6C6F723A2023343434343434CF
:1022A0003B6D617267696E2D626F74746F6D3A2059
:1022B000353070783B7D0A2E627574746F6E207BAA
:1022C000646973706C61793A20626C6F636B3B096F
:1022D0000977696474683A20383070783B626163CA
:1022E0006B67726F756E642D636F6C6F723A20232B
:1022F0003161626339633B626F726465723A206E6A
:102300006F6E653B636F6C6F723A207768697465B6
:102310003B090970616464696E673A2031337078F3
:1023200020333070783B746578742D6465636F7208
:102330006174696F6E3A206E6F6E653B666F6E7486
:102340002D73697A653A20323570783B09096D61E1
:102350007267696E3A20307078206175746F20332F
:102360003570783B637572736F723A20706F696E67
:102370007465723B626F726465722D726164697517
:10238000733A203470783B7D0A09092E62757474A3
:102390006F6E2D6F6E207B6261636B67726F756EFF
:1023A000642D636F6C6F723A20233161626339630D
:1023B0003B7D0A2E627574746F6E2D6F6E3A616389
:1023C000746976652009097B6261636B67726F755A
:1023D0006E642D636F6C6F723A2023313661303832
:1023E000353B7D0A2E627574746F6E2D6F666620A4
:1023F0007B6261636B67726F756E642D636F6C6F68
:10240000723A20233334343935653B7D0A09092E6D
:10241000627574746F6E2D6F66663A616374697667
:1024200065207B6261636B67726F756E642D636F8D
:102430006C6F723A20233263336535303B7D0A700E
:10244000207B666F6E742D73697A653A2031347023
:10245000783B636F6C6F723A20233838383B6D617C
:102460007267696E2D626F74746F6D3A20313070CF
:10247000783B7D0A09093C2F7374796C653E0A3CF0
:102480002F686561643E0A3C626F64793E0A3C686D
:10249000313E45535038323636204C454420434F68
:1024A0004E54524F4C3C2F68313E0A00616E6D31E4
:1024B000353735323300414E4D3200000000000008
:1024C00000000001020304060708090000000001E3
:1024D00002030402030405060708090A0B0C0D0E8B
:1024E0000F10100102232D302B2000686C4C00656A
:1024F0006667454647003031323334353637383930
:102500004142434445460030313233343536373862
:08251000396162636465660035
:042518003101000885
:04251C000D010008A5
:102520004D210008BC20000804210008AD2000084F
:102530000024F40001000000100000000000000072
:1025400064020020CC0200203403002000000000C0
:10255000000000000000000000000000000000007B
:10256000000000000000000000000000000000006B
:10257000000000000000000000000000000000005B
:0C25800000000000000000001C00002013
:0400000508000BEDF7
:00000001FF
